S01300002E2F44656275672F506F6E672E733139DA
S315200000000248854600F0EEFDFEE7C04600C001200E
S3152000001080B584B000AF0200FB1D1A700D4B1A6824
S315200000200F217B18127D1A70FB1D1B785BB20422F0
S3152000003093435AB27B181B785BB213435AB27B1890
S315200000401A70044B1B687A1812781A75C046BD467A
S3152000005004B080BD8C0D002080B584B000AF0200B6
S31520000060FB1D1A70104B1A680F217B18127D1A700F
S31520000070FB1D1B785BB2DB435BB27A18127852B257
S3152000008013405AB27B181A707B1808007A18127817
S3152000009004218A431A70044B1B683A1812781A7581
S315200000A0C046BD4604B080BD8C0D002080B582B010
S315200000B000AF0200FB1D1A70FB1D1B78082B0CD00D
S315200000C002DC002B05D01AE0102B0DD0182B12D0F5
S315200000D015E01820FFF7C0FF11E00820FFF798FF72
S315200000E01020FFF7B9FF0AE00820FFF7B5FF102020
S315200000F0FFF78EFF03E01820FFF78AFFC046C046B1
S31520000100BD4602B080BD80B500AF4020FFF7A4FFFA
S31520000110154B1B68154A1A600120FFF79DFF022028
S31520000120FFF776FF00F0F4FD4020FFF771FF00F0A7
S31520000130EFFD4020FFF790FF00F0EAFD0A4B1B6819
S315200001405B7CDBB21A0080231340802B00D1EBE7C7
S31520000150C0464020FFF75CFF034B1B68044A1A6029
S31520000160C046BD4680BDC0468C0D002055550000BA
S315200001705555555580B584B000AF0200FB1D1A7049
S315200001804020FFF769FF1C4B1B681C4A1A6003209E
S31520000190FFF73EFFFB1D1B781800FFF787FF00F0D7
S315200001A0B7FD4020FFF734FF00F0B2FD124B1A686E
S315200001B00F23FB18527C1A704020FFF74DFF0E4B81
S315200001C01B680F4A1A60FB1D1B78082B04D10820D8
S315200001D0FFF76CFFFFF797FFFB1D1B78102B04D151
S315200001E01020FFF763FFFFF78EFF0F23FB181B7806
S315200001F01800BD4604B080BD8C0D0020555500006A
S315200002005555555580B582B000AF0200FB1D1A70BA
S31520000210BB1D0A1C1A701B4B1B68FA1D12785A75D7
S31520000220BB1D1B781800FFF741FF00F071FD402031
S31520000230FFF7EEFE00F06CFD4020FFF70DFFBB1D23
S315200002401B780822134004D00820FFF72FFFFFF762
S315200002505AFFBB1D1B781022134004D01020FFF735
S3152000026025FFFFF750FF074B1B6800225A754020D9
S31520000270FFF7CEFE0020FFF719FFC046BD4602B0AD
S3152000028080BDC0468C0D002080B582B000AF020034
S31520000290FB1D1A70BB1D0A1C1A704020FFF7DCFEDE
S315200002A0BB1D1B781800FFF701FF0320FFF7D4FEC4
S315200002B0BB1D1A78FB1D1B7811001800FFF7A2FF43
S315200002C0C046BD4602B080BD80B582B000AF0200F8
S315200002D0FB1D1A70BB1D0A1C1A704020FFF7BCFEBE
S315200002E0BB1D1B781800FFF7E1FE0120FFF790FEEB
S315200002F00220FFF7B1FEBB1D1A78FB1D1B781100EB
S315200003001800FFF77FFFC046BD4602B080BD80B50E
S3152000031082B000AF0200FB1D1A70FB1D1B7818006F
S31520000320FFF728FFFB1D1B781800FFF723FF0300AC
S315200003301800BD4602B080BD80B582B000AFFB1D5F
S3152000034000221A7024E0FB1D1B78482252421343D8
S31520000350DBB218211800FFF797FF18214020FFF77E
S3152000036093FFBB1D00221A7008E018210020FFF71A
S31520000370ABFFBB1D1A78BB1D01321A704022BB1D74
S315200003801B789342F1D3FB1D1A78FB1D01321A709C
S315200003900822FB1D1B789342D5D3C046BD4602B02A
S315200003A080BD80B500AF4020FFF732FE0A2000F066
S315200003B0B4FC3820FFF750FE4020FFF74DFE1E20EC
S315200003C000F0BEFC2020FFF723FE18213E20FFF779
S315200003D05BFF18213F20FFF757FF1821C020FFF7AA
S315200003E053FF18214020FFF74FFF1821B820FFF7B1
S315200003F04BFF0020FFF75AFEC046BD4680BDF0B534
S3152000040085B000AF040008001100FB1D221C1A70E5
S31520000410BB1D021C1A707B1D0A1C1A708022FB1D34
S315200004201B78934205D34022BB1D1B78934200D3F1
S315200004308FE0BB1D1B78013B002B00DA0733DB1056
S315200004401A000C23FB181A70BB1D1B78013B0722D0
S31520000450134001229A400F23FB181A707B1D1B782C
S31520000460002B05D10F22BB18BA181278D2431A7066
S3152000047080235B08DBB2FA1D12789A420AD20E2339
S31520000480FB1808221A700D23FB18FA1D1278013A60
S315200004901A700EE00E23FB1810221A7080235B08B8
S315200004A0DBB2FA1D1278D31ADAB20D23FB18013A01
S315200004B01A700D26BB191B7840221343DAB20E257B
S315200004C07B191B7819001000FFF7DEFE0C23FB18A2
S315200004D01B78482252421343DAB27B191B78190043
S315200004E01000FFF7D1FE0B23FC187B191B78180090
S315200004F0FFF70DFF03002370BB191B78402213431F
S31520000500DAB27B191B7819001000FFF7BDFE7B1DA0
S315200005101B78002B09D10F22BB18BA180B2179188A
S31520000520127809780A401A7008E00F22BB18B91809
S315200005300B22BA18097812780A431A700E23FB1870
S315200005401A780F23FB181B7811001800FFF7BCFE42
S3152000055000E0C046BD4605B0F0BDC04690B585B0AA
S3152000056000AF78600F23FB1800221A7027E07B6803
S315200005701A680F217B181B785B00D31803331A786F
S315200005807B681B795BB2DBB2D318D8B27B681A685A
S315200005900C007B181B785B00D31804331A787B6811
S315200005A05B795BB2DBB2D318DBB201221900FFF70D
S315200005B026FF21007B181A787B1801321A707B6877
S315200005C01B681B780F22BA1812789A42CFD3C046DE
S315200005D0BD4605B090BD90B585B000AF78600F23BD
S315200005E0FB1800221A7027E07B681A680F217B18F7
S315200005F01B785B00D31803331A787B681B795BB2B0
S31520000600DBB2D318D8B27B681A680C007B181B782B
S315200006105B00D31804331A787B685B795BB2DBB254
S31520000620D318DBB200221900FFF7E9FE21007B1860
S315200006301A787B1801321A707B681B681B780F2288
S31520000640BA1812789A42CFD3C046BD4605B090BD9F
S3152000065080B582B000AF78607B681800FFF7BBFFDB
S315200006607B681B795BB2DAB27B689B795BB2DBB2C3
S31520000670D318DBB25AB27B681A717B685B795BB29E
S31520000680DAB27B68DB795BB2DBB2D318DBB25AB263
S315200006907B685A717B681B795BB2002B0BDB7B680E
S315200006A01B795BB21A007B681B685B78D318174AE4
S315200006B01278934208DD7B689B795BB2DBB25B42A2
S315200006C0DBB25AB27B689A717B685B795BB2002B8E
S315200006D00BDB7B685B795BB21A007B681B689B78B7
S315200006E0D3180B4A1278934208DD7B68DB795BB21C
S315200006F0DBB25B42DBB25AB27B68DA717B681800E8
S31520000700FFF72CFFC046BD4602B080BD5A0D002023
S315200007105B0D002080B582B000AF78600800110024
S31520000720FB1C021C1A70BB1C0A1C1A707B68FA1C64
S3152000073012789A717B68BA1C1278DA71C046BD4667
S3152000074002B080BD90B583B000AF78600C00100079
S315200007501900FB1C221C1A70BB1C021C1A707B1C65
S315200007600A1C1A707B68114A1A607B68FA1C127878
S315200007701A717B68BA1C12785A717B687A1C1278B7
S315200007809A717B681822BA181278DA717B68084A3F
S315200007909A607B68074ADA607B68074A1A617B6839
S315200007A0064A5A617868BD4603B090BD5C0D0020AC
S315200007B05D050020D70500205106002015070020E2
S315200007C080B584B000AF0200FB1D1A700C4B1A686E
S315200007D00F203B18127D1A70FA1D3B1812781B78D1
S315200007E01343DAB23B1804210A431A70044B1B68E0
S315200007F03A1812781A75C046BD4604B080BDC04668
S315200008008C0D002080B584B000AF0200FB1D1A704D
S315200008100E4B1A680F217B18127D1A70FB1D1B7850
S315200008205BB2DB435BB2042213435BB27A181278C5
S3152000083052B213405AB27B181A70044B1B687A18AE
S3152000084012781A75C046BD4604B080BD8C0D0020B6
S3152000085080B582B000AF0200FB1D1A704020FFF762
S31520000860AFFF074B1B68FA1D12785A7500F032FA53
S315200008704020FFF7C7FFC046BD4602B080BDC04638
S315200008808C0D002080B582B000AF4020FFF798FF86
S3152000089000F020FA00F01EFA064B1A68FB1D527C67
S315200008A01A704020FFF7AEFFFB1D1B781800BD46CF
S315200008B002B080BD8C0D002090B583B000AF0C4BEC
S315200008C01B680C4A1A600120FFF79CFF0220FFF7E5
S315200008D077FFFC1DFFF7D6FF03002370044B1B6830
S315200008E0054A1A60FB1D1B781800BD4603B090BD53
S315200008F08C0D0020555500005555555590B583B0A3
S3152000090000AF0C4B1B680C4A1A600120FFF758FFFA
S315200009100220FFF755FFFC1DFFF7B4FF03002370ED
S31520000920044B1B68054A1A60FB1D1B781800BD4640
S3152000093003B090BD8C0D00205555000055555555DA
S3152000094080B582B000AF0200FB1D1A700120FFF7B0
S3152000095059FF0220FFF756FFFB1D1B781800FFF7F3
S3152000096077FFC046BD4602B080BD80B582B000AFDD
S315200009700200FB1D1A700120FFF722FF0220FFF75D
S3152000098041FFFB1D1B781800FFF762FFC046BD46DE
S3152000099002B080BD80B582B000AF0200FB1D1A7088
S315200009A0C046FFF789FF03001A0080231340802BDF
S315200009B0F7D0082000F0B1F9FB1D1B781800FFF7CF
S315200009C0BFFFC046BD4602B080BD80B582B000AF35
S315200009D00200FB1D1A70C046FFF76EFF03001A00C7
S315200009E080231340802BF7D0082000F096F9FB1DBA
S315200009F01B781800FFF7B9FF2B2000F08EF9C046B0
S31520000A00BD4602B080BD80B584B000AF0200FB1D9C
S31520000A101A70BB1D0A1C1A700F23FB18FA1D1278B8
S31520000A20013A1A70BB1D1B78022B05D10F22BB1869
S31520000A30BA18127840321A700F23FB181B788022BE
S31520000A4052421343DBB21800FFF77AFFC046BD4679
S31520000A5004B080BD80B500AF3820FFF79BFF27206C
S31520000A6000F05BF90E20FFF795FF272000F055F9DF
S31520000A700120FFF78FFF022000F062F90620FFF722
S31520000A8089FF272000F049F9C046BD4680BDC046F3
S31520000A9080B582B000AF0200FB1D1A70FB1D1B78CB
S31520000AA0022B0DD002DC012B05D018E0032B0CD035
S31520000AB0042B0FD013E00E4B1B6810225A7512E040
S31520000AC00B4B1B6820225A750DE0094B1B684022F0
S31520000AD05A7508E0064B1B6880225A7503E0044BC2
S31520000AE01B6800225A75C046BD4602B080BDC0466E
S31520000AF0880D002080B582B000AF134B1A68FB1D0D
S31520000B00527C1A70FB1D1B780822134001D0042347
S31520000B1015E0FB1D1B780422134001D003230EE0B1
S31520000B20FB1D1B780222134001D0022307E0FB1D88
S31520000B301B780122134001D0012300E00023180076
S31520000B40BD4602B080BDC046880D002090B583B05A
S31520000B5000AFFB1D01221A7020E0FB1D1B78180038
S31520000B60FFF796FFBC1DFFF7C5FF03002370BB1DD3
S31520000B701B78002B0DD00020FFF78AFFFB1D1B786A
S31520000B80013B9A00BB1D1B78013BD318094AD35C55
S31520000B900CE0FB1D1A78FB1D01321A70FB1D1B7819
S31520000BA0042BDAD90020FFF773FFFF231800BD4678
S31520000BB003B090BD900D002080B500AF054B1B689B
S31520000BC0054A1A60054B1B68054A1A60C046BD4691
S31520000BD080BDC046880D0020005500558C0D002094
S31520000BE055555555B0B58AB002AFFFF7E5FFFFF76B
S31520000BF031FFFFF7D6FB381D002300930023002288
S31520000C000021FFF79FFD3B1D1B693A1D10009847E9
S31520000C10282000F095F81F257C19FFF797FF030081
S31520000C2023707B191B78092B4AD89A00284BD31896
S31520000C301B689F463B1D5B69022254420222514299
S31520000C40381D2200984741E03B1D5B690422524231
S31520000C50381D0021984739E03B1D5B69022252422C
S31520000C60381D0221984731E03B1D5B690422514221
S31520000C70381D0022984729E03B1D5B69381D00225C
S31520000C800021984722E03B1D5B69381D0022042184
S31520000C9098471BE03B1D5B6902225142381D022208
S31520000CA0984713E03B1D5B69381D042200219847B5
S31520000CB00CE03B1D5B69381D02220221984705E0A6
S31520000CC03B1D5B69381D0022002198479BE7C046E3
S31520000CD0A00D002080B500AF0C4B00221A600B4BF4
S31520000CE029225A60094B00229A60084B05221A6075
S31520000CF0C046064B1A6880235B021340F9D0034B8B
S31520000D0000221A60C046BD4680BDC04610E000E005
S31520000D1080B500AFC046BD4680BD80B582B000AF6D
S31520000D20786006E0FFF7F4FFFFF7F2FF7B68013BF0
S31520000D307B607B68002BF5D1C046BD4602B080BDE6
S31520000D4080B582B000AF78607B681800FFF7E5FFBA
S31520000D50C046BD4602B080BD084080400C04040059
S31520000D600100020100010101020103020002010249
S31520000D70020203030103020000000000000000003D
S31520000D800000000000000000000C0240001002409D
S31520000D900102030A0405060B0708090C0E000F0DB5
S31520000DA0C00C0020340C0020480C0020580C0020D9
S31520000DB0680C0020780C0020860C0020940C002063
S31120000DC0A40C0020B20C002010E000E083
S70520000000DA
